:100000000C9441000C945E000C945E000C945E0015
:100010000C945E000C945E000C945E000C945E00E8
:100020000C945E000C945E000C945E000C945E00D8
:100030000C945E000C9490010C945E000C945E0095
:100040000C945E000C945E000C945E000C945E00B8
:100050000C945E0061056B0575057F0589059305A8
:100060009D05A705CA05D505E005EA05F5050006C5
:100070000B06350740074B07560761076C077707E4
:10008000820711241FBECFE5D8E0DEBFCDBF10E050
:10009000A0E6B0E0E2E9FFE002C005900D92A03AD0
:1000A000B107D9F720E0A0EAB0E001C01D92AA3C58
:1000B000B207E1F70E94DC020C94C7070C94000021
:1000C00098B39E7F98BB98B39D7F98BBEFECF7E009
:1000D0003197F1F700C0000098B3946098BBEFEC43
:1000E000F7E03197F1F700C0000095B3282F229573
:1000F0002F70907F922B95BBEFECF7E03197F1F7E3
:1001000000C0000098B39B7F98BBEFECF7E03197FD
:10011000F1F700C0000098B3946098BBEFECF7E0F3
:100120003197F1F700C0000095B3907F8F70892B55
:1001300085BB8FEC97E00197F1F700C0000088B312
:100140008B7F88BBEFECF7E03197F1F700C0000040
:10015000089587B3876087BB84B38F6084BB82E0D8
:100160000E94600088E20E9460008CE00E946000B3
:1001700081E00E946000089598B3916098BB98B3A5
:100180009D7F98BBEFECF7E03197F1F700C00000DE
:1001900098B3946098BBEFECF7E03197F1F700C0AB
:1001A000000095B3282F22952F70907F922B95BB3E
:1001B000EFECF7E03197F1F700C0000098B39B7FB8
:1001C00098BBEFECF7E03197F1F700C0000098B36F
:1001D000946098BBEFECF7E03197F1F700C00000B6
:1001E00095B3907F8F70892B85BB8FEC97E001973B
:1001F000F1F700C0000088B38B7F88BBEFECF7E01D
:100200003197F1F700C0000008950F931F93CF932B
:100210008C01C0E003C00E94BC00CF5FF801EC0F6E
:10022000F11D80818111F7CFCF911F910F9108951A
:10023000813031F070F0823031F0833039F00AC013
:1002400090E4960F07C090E1960F04C090E5960FDA
:1002500001C0962F892F80680E9460000895CF9377
:10026000DF93EA010E941801CE010E940501DF918F
:10027000CF910895CF93DF9300D0CDB7DEB780EA5A
:1002800089838A818C7F81608A83CE0101960E9456
:1002900013050F900F90DF91CF910895CF93DF93C7
:1002A00000D000D0CDB7DEB7809173008983CE0136
:1002B00001960E946706698166FB662760F9CE0198
:1002C00001960E949F06809174008A83CE01029657
:1002D0000E9467066A8166FB662760F9CE01029676
:1002E0000E949F0683E08B838C83CE0103960E943D
:1002F000E6061CBE0F900F900F900F90DF91CF91EC
:1003000008958091C30080628C7F8160837E8861C4
:1003100080648093C30083EC90E00E946706089598
:100320001F920F920FB60F9211248F93F8948CB1F5
:100330008093A9008F910F900FBE0F901F9018957A
:100340008BB380688BBB8FE39CE90197F1F700C00A
:1003500000008BB38F778BBB8091B300813409F0A1
:1003600064C02091A6003091A7008091AC009091CC
:10037000AD0082179307A8F483B78F7E83BF83B73E
:10038000806283BF88EC0E94120760E083EC90E0FB
:100390000E949F0685E790E00E94A50782E0809377
:1003A000C7002091A6003091A7008091A4009091F1
:1003B000A5002817390798F48CB7883C19F40E94D7
:1003C0001A0701C01CBE61E083EC90E00E949F060A
:1003D00088E790E00E94A50781E08093C7008091A4
:1003E000A6009091A7002091A4003091A50082174B
:1003F000930708F458C02091AC003091AD00281745
:10040000390708F450C08CB7882319F08CB70E94C4
:100410001A0760E083EC90E00E949F068BE790E073
:100420000E94A5071092C70008958D34E1F5209130
:10043000A6003091A7008091AC009091AD0082178A
:10044000930738F482E08093C70085E790E00E942C
:10045000A5072091A6003091A7008091A40090915B
:10046000A5002817390738F481E08093C70088E792
:1004700090E00E94A5078091A6009091A70020918E
:10048000A4003091A5008217930768F02091AC007A
:100490003091AD002817390730F01092C7008BE774
:1004A00090E00E94A50708958091C600882301F17D
:1004B0008091A6009091A7004091AC005091AD00B2
:1004C0004817590718F422E02093C7002091A40090
:1004D0003091A5008217930718F461E06093C7007C
:1004E0008217930728F04817590710F01092C70099
:1004F0008091C700813069F018F0823099F008953A
:100500004EE750E060E070E080E090E00E942F0154
:10051000089545E850E060E070E080E090E00E94DF
:100520002F0108954CE850E060E070E080E090E03A
:100530000E942F010895FF920F931F93CF93DF9393
:100540008C01EB01F12C2DC09E01ADECBCEC0E94A6
:10055000B807AC01569547955695479556954795DA
:10056000CA01880F991F440F551F440F551F440F90
:10057000551F480F591FCE01841B950BAC010E94DB
:10058000B807EC01D695C795D695C795D695C7956A
:10059000E2E0F0E0EF19F109E00FF11F405D408368
:1005A000F39492E09F1580F6F8011382DF91CF91CA
:1005B0001F910F91FF9008950E943A010E944E01F1
:1005C0000E9481010E94A90080E895E20E949A079A
:1005D00080EF8ABB78940E94540260E070E081E072
:1005E00090E00E94180166EA70E084EC90E00E94BE
:1005F00054066091A6007091A70080E690E00E94EA
:100600009B0243E950E060E070E081E090E00E94EE
:100610002F0140E650E06CE070E081E090E00E9445
:100620002F018091A900813409F0A0C08BB38068AC
:100630008BBB8FE39CE90197F1F700C000008BB3FF
:100640008F778BBB81E48093B30078948091A9006D
:100650008E3699F58BB380688BBB9FE728E381E0EA
:10066000915020408040E1F700C000008BB38F77AD
:100670008BBB78948091A9008E36D9F38BB38068B8
:100680008BBB8FE39CE90197F1F700C000008BB3AF
:100690008F778BBB8091A90090E0C0979C01220FBF
:1006A000331F880F991F880F991F880F991F820F7A
:1006B000931F9093A5008093A4008091A900883790
:1006C00009F040C08BB380688BBB9FE728E381E0D3
:1006D000915020408040E1F700C000008BB38F773D
:1006E0008BBB78948091A9008837D9F38BB380684D
:1006F0008BBB9FE728E381E0915020408040E1F7E9
:1007000000C000008BB38F778BBB8091A90090E075
:10071000C0979C01220F331F880F991F880F991FC4
:10072000880F991F820F931F9093AD008093AC00A8
:100730008FE39CE90197F1F700C000000E94A0013F
:100740000E9454028091A9008A3509F07ECF8BB3B4
:1007500080688BBB9FE728E381E091502040804078
:10076000E1F700C000008BB38F778BBB8091A900AD
:100770008D3409F03CC18BB380688BBB8FE39CE95F
:100780000197F1F700C000008BB38F778BBB8DE42E
:100790008093B30078948091A9008E3699F58BB33D
:1007A00080688BBB9FE728E381E091502040804028
:1007B000E1F700C000008BB38F778BBB78948091FA
:1007C000A9008E36D9F38BB380688BBB8FE39CE98D
:1007D0000197F1F700C000008BB38F778BBB80913E
:1007E000A90090E0C0979C01220F331F880F991F2A
:1007F000880F991F880F991F820F931F9093A50050
:100800008093A4008091A900883709F040C08BB381
:1008100080688BBB9FE728E381E0915020408040B7
:10082000E1F700C000008BB38F778BBB7894809189
:10083000A9008837D9F38BB380688BBB9FE728E387
:1008400081E0915020408040E1F700C000008BB370
:100850008F778BBB8091A90090E0C0979C01220FFD
:10086000331F880F991F880F991F880F991F820FB8
:10087000931F9093AD008093AC008FE39CE90197A8
:10088000F1F700C000000E94A0010E945402809174
:10089000A9008234B9F48BB380688BBB9FE728E34F
:1008A00081E0915020408040E1F700C000008BB310
:1008B0008F778BBB61E083EC90E00E949F068AE714
:1008C0008093A9008091A9008835B9F48BB3806822
:1008D0008BBB9FE728E381E0915020408040E1F707
:1008E00000C000008BB38F778BBB60E083EC90E09F
:1008F0000E949F068AE78093A9008091A90088340E
:10090000B9F48BB380688BBB9FE728E381E09150FB
:1009100020408040E1F700C000008BB38F778BBB95
:1009200060E083EC90E00E949F068AE78093A90034
:100930008091A900863471F58BB380688BBB9FE7EB
:1009400028E381E0915020408040E1F700C00000A2
:100950008BB38F778BBB2091A9002634E1F330E075
:100960002053310982E3829FA001839F500D1124FF
:100970005093AB004093AA008CB790E048175907FA
:1009800028F08CB7642F0E94210704C06CB7842F15
:100990000E9421078091A9008E34A9F48BB380684E
:1009A0008BBB9FE728E381E0915020408040E1F736
:1009B00000C000008BB38F778BBB8CB70E941A07E7
:1009C0008AE78093A9008091A9008A3509F0E2CED8
:1009D0008BB380688BBB9FE728E381E09150204078
:1009E0008040E1F700C000008BB38F778BBB809114
:1009F000A900893409F0EECD8091C700811104C0AF
:100A00008EE40E94A1070BC0813021F48CE40E9487
:100A1000A10705C0823019F488E40E94A1078AE783
:100A20008093A900D7CDDC01892B09F40AC186B1D6
:100A3000806886B911968C9111978370813059F036
:100A400018F0823079F015C087B18F7B87B987B1F4
:100A50008F7787B914C087B1806487B987B18F77E2
:100A600087B90DC087B1806487B987B1806887B9BD
:100A700006C087B18F7B87B987B18F7787B98C9193
:100A8000982F917080FF03C0913029F008C087B182
:100A90008F7D87B907C087B1806287B903C087B1EE
:100AA000806287B94C91E42FE695EF704E2F50E0AD
:100AB0004830510508F055C0FA01E65DFF4F0C942F
:100AC000B20787B18E7F87B987B18D7F87B987B12C
:100AD0008B7F87B94FC087B1816087B987B18D7F20
:100AE00087B987B18B7F87B945C087B18E7F87B9BA
:100AF00087B1826087B987B18B7F87B93BC087B1E7
:100B0000816087B987B1826087B987B18B7F87B9E8
:100B100031C087B18E7F87B987B18D7F87B987B1A3
:100B2000846087B927C087B1816087B987B18D7F1D
:100B300087B987B1846087B91DC087B1816087B9E3
:100B400087B1826087B987B18B7F87B913C087B1BE
:100B5000816087B987B1826087B987B1846087B9BE
:100B600009C087B18E7F87B987B18D7F87B987B17B
:100B70008B7F87B98C91E82FE295E695E7708E2FF1
:100B800090E08730910508F051C0FC01EE5CFF4F0A
:100B90000C94B20786B18E7F86B986B18D7F86B9F7
:100BA00086B18B7F86B981E0089586B18E7F86B944
:100BB00086B1826086B986B18B7F86B981E008955F
:100BC00086B1816086B986B1826086B986B186B900
:100BD00081E0089586B18E7F86B986B18D7F86B912
:100BE00086B1846086B981E0089586B1816086B956
:100BF00086B18D7F86B986B1846086B981E008951B
:100C000086B18E7F86B986B1826086B986B18460EE
:100C100086B981E0089586B1816086B986B1826027
:100C200086B986B1846086B981E0089586B18E7FE9
:100C300086B986B18D7F86B986B18B7F86B981E012
:100C4000089580E00895009759F16115710551F1FB
:100C5000FC018081982F917080FF03C0913059F082
:100C60001AC084B195B1969587950297FB0191833F
:100C7000808381E0089584B195B10024880F991F85
:100C8000001C880F991F001C892F902DFB01918358
:100C9000808381E0089587B18F7D87B981E00895D1
:100CA00080E0089580E00895009769F0611571056E
:100CB00061F026B1206426B926B10E94230696B1C0
:100CC000906196B9089580E0089580E00895FC0150
:100CD000892B99F1208126952695277040814370B4
:100CE00050E0808185FD15C0440F551FFA01E5597C
:100CF000FF4F0190F081E02D308181E090E002C053
:100D0000880F991F2A95E2F780958323808381E0DD
:100D10000895440F551FFA01E559FF4F0190F081E6
:100D2000E02D308181E090E002C0880F991F2A9564
:100D3000E2F7832B808381E0089580E00895009797
:100D400009F440C0662319F06130F9F03DC0FC01A0
:100D50008081E82FE370F0E0EE0FFF1FED59FF4FA9
:100D60000190F081E02D408186958695877021E085
:100D700030E0B90102C0660F771F8A95E2F7CB0118
:100D800080958423808381E00895FC018081E82F91
:100D9000E370F0E0EE0FFF1FED59FF4F0190F0817F
:100DA000E02D408186958695877021E030E0B9017D
:100DB00002C0660F771F8A95E2F7CB01842B8083F0
:100DC00081E0089580E0089581E00895009749F159
:100DD000FC018081813019F0833089F01FC083B716
:100DE000806483BF83B7877F83BF83B78F7E83BFD2
:100DF00083B7806283BF81810E9428070FC083B7B9
:100E0000806483BF83B7886083BF83B78F7E83BFCF
:100E100083B7806283BF81810E94280787B388607F
:100E200087BB089590E002C09CBF9F5F8917E0F7E1
:100E300081E0089502C08CBF81508230E0F781E0EC
:100E4000089502C08CBF8F5F6817E0F781E00895B6
:100E5000882309F46DC090E08830910508F05DC0EA
:100E6000FC01E75CFF4F0C94B20783B78B7F83BF15
:100E700083B78D7F83BF83B78E7F83BF81E0089563
:100E800083B78B7F83BF83B78D7F83BF83B7816039
:100E900083BF81E0089583B78B7F83BF83B7826070
:100EA00083BF83B78E7F83BF81E0089583B78B7F35
:100EB00083BF83B7826083BF83B7816083BF81E0D4
:100EC000089583B7846083BF83B78D7F83BF83B763
:100ED0008E7F83BF81E0089583B7846083BF83B72B
:100EE0008D7F83BF83B7816083BF81E0089583B71F
:100EF000846083BF83B7826083BF83B78E7F83BFE5
:100F000081E0089583B7846083BF83B7826083BF25
:100F100083B7816083BF81E0089583B78B7F83BFF0
:100F200083B78D7F83BF83B7816083BF81E00895DE
:100F300080E0089588E98AB986E880BD83E389B9AD
:100F400008955D9BFECF8CB90895CF93DF93EC019C
:100F500003C00E94A107219688818111FACFDF91F9
:100F6000CF910895EE0FFF1F0590F491E02D0994A5
:100F7000A29FB001B39FC001A39F700D811D1124DA
:100F8000911DB29F700D811D1124911D0895F8943B
:020F9000FFCF91
:100F92003030303B003800350032003A0037003440
:100FA20000310031754825004C25004E25006E6F3A
:100FB200726D616C00636F6C64202000686F742036
:100FC20020200074656D70657261747572653D00F4
:00000001FF
